:100000000C942E000C9449000C9449000C94490067
:100010000C9461000C9449000C9449000C94490024
:100020000C9449000C9449000C9449000C94720003
:100030000C9449000C9449000C9449000C9449001C
:100040000C9449000C9449000C9449000C9449000C
:100050000C9449000C9449000C94490011241FBED3
:10006000CFEFD4E0DEBFCDBF11E0A0E0B1E0E0E033
:10007000F3E002C005900D92A030B107D9F711E06E
:10008000A0E0B1E001C01D92A030B107E1F70C94EF
:1000900005010C94000001972FEF8F3F920731F07C
:1000A00020E000002F5F273CE0F3F5CF0895109289
:1000B000C5008CE090E08093C40088E18093C1008B
:1000C00008951F920F920FB60F9211248F9385B14E
:1000D000856085B91092B0008F910F900FBE0F9080
:1000E0001F9018951F920F920FB60F9211242C9803
:1000F00014BC0F900FBE0F901F90189501972FEF13
:100100008F3F920751F02CE70000215027FFFCCFD2
:1001100001972FEF8F3F9207B1F70895CF93C0E07B
:1001200080E88093610083E080936100C093700059
:1001300088E08093B60088EC8093B300C0936E0093
:1001400081E0809381008093B0008091B600282FD9
:100150003327217030708091B60099278470907099
:10016000282B392B232B89F788EE93E00E947E0001
:100170004FEF51E0F89446BB47BB109285001092B8
:1001800084001092B200B99BFECF10928100789447
:10019000B09B13C02FEF3FEF88E12B36380734F0C8
:1001A0008091660081508093660013C0285E3741BD
:1001B0007CF4809166008F5FF6CF909184008091EF
:1001C0008500282F3327322F2227290F311DE4CF16
:1001D000C1E050938100CC2369F2CF9108950E9431
:1001E0008E000E94570085E184B985B1856085B98C
:1001F00088E08093B60082E0809370001092B00097
:1002000081E080936E0014BC0895CFEFD4E0DEBF90
:10021000CDBFC0E00E94EF008091C0008823E4F7CA
:100220002091C60031E68C2F99278130910591F1FC
:1002300082309105ECF10297C9F1832F992784361A
:10024000910571F18536910554F48236910509F4D2
:1002500041C083369105B1F02093C600DDCF8736CB
:100260009105D4F7C0E021502093B3002F5FC093D5
:10027000B20087E08093B000353631F02A982093A1
:10028000C600CACF1092B00085B18A7F85B920938D
:10029000C600C2CF35E6832F99278436910591F6A3
:1002A0001092B00085B1856085B9F1CF36E6C5CF33
:1002B000892B19F6822F992788359105D9F0893530
:1002C00091057CF480339105B9F0C19709F0B5CF61
:1002D00034E6B3CF2C9A16BC81E084BD2093C600CF
:1002E0009BCF8636910551F08437910509F0A5CF53
:1002F000C1E0A3CF32E6A1CF33E69FCFC2E09DCFCE
:00000001FF
