:100000000C942E000C9449000C9449000C94490067
:100010000C9449000C9449000C9449000C9449003C
:100020000C9449000C9449000C9449000C9449002C
:100030000C9449000C9449000C9449000C9449001C
:100040000C9449000C9449000C9449000C9449000C
:100050000C9449000C9449000C94490011241FBED3
:10006000CFEFD4E0DEBFCDBF11E0A0E0B1E0E4E52A
:10007000F2E002C005900D92A230B107D9F711E06D
:10008000A2E0B1E001C01D92A230B107E1F70C94EB
:10009000D5000C94000001972FEF8F3F920731F0AD
:1000A00020E000002F5F273CE0F3F5CF0895109289
:1000B000C5008CE090E08093C40088E18093C1008B
:1000C000089501972FEF8F3F920731F02CE7000042
:1000D000215027FFFCCFF5CF0895CF93C0E080E8F3
:1000E0008093610083E080936100C093700088E09A
:1000F0008093B60088EC8093B300C0936E0081E0DB
:10010000809381008093B0008091B600282F332720
:10011000217030708091B600992784709070282BE0
:10012000392B232B89F788EE93E00E9461004FEF73
:1001300051E0F89446BB47BB1092850010928400B2
:100140001092B200B99BFECF109281007894B09BC0
:1001500003C02FEF3FEF0AC090918400809185008B
:10016000282F3327322F2227290F311D88E12B36E4
:10017000380724F080916600815006C0285E374120
:1001800034F4809166008F5F8093660001C0C1E007
:1001900050938100CC2369F2CF9108950E946D00A5
:1001A0000E9457008FEF84B90895CFEFD4E0DEBFEF
:1001B000CDBFC0E00E94CE008091C00087FF07C085
:1001C0008091C6008093000110910001C1E08091F0
:1001D000000199278234910581F1833491056CF4F3
:1001E00081339105C1F0823391051CF4C097B1F0C1
:1001F0002AC081349105E1F026C08335910591F044
:100200008435910524F48235910551F01CC0843564
:10021000910551F018C085E085B915C015B813C017
:1002200015B808C015B80BC015B88AEF90E009C022
:1002300081E085B982E390E004C081E085B984E67D
:1002400090E00E944B00CC2309F4B6CF1093C60077
:04025000C0E0B2CF89
:02025400310077
:00000001FF
