:100000000C942E000C9449000C9449000C94490067
:100010000C9449000C9449000C9449000C9449003C
:100020000C9449000C9449000C9449000C9449002C
:100030000C9449000C9449000C9449000C9449001C
:100040000C9449000C9449000C9449000C9449000C
:100050000C9449000C9449000C94490011241FBED3
:10006000CFEFD4E0DEBFCDBF11E0A0E0B1E0E2E22F
:10007000F2E002C005900D92A230B107D9F711E06D
:10008000A2E0B1E001C01D92A230B107E1F70C94EB
:10009000D8000C94000001972FEF8F3F920731F0AA
:1000A00020E000002F5F293AE0F3F5CF0895109289
:1000B000C5008CE090E08093C40088E18093C1008B
:1000C00084E28093C200089501972FEF8F3F92073B
:1000D00031F02CE70000215027FFFCCFF5CF089529
:1000E000CF93C0E080E88093610083E0809361005B
:1000F000C093700088E08093B60088EC8093B300D2
:10010000C0936E0081E0809381008093B000809165
:10011000B600282F3327217030708091B6009927C0
:1001200084709070282B392B232B89F788EE93E06D
:100130000E9464004FEF51E0F89446BB47BB109219
:100140008500109284001092B200B99BFECF1092ED
:1001500081007894B09B03C02FEF3FEF0AC09091CD
:10016000840080918500282F3327322F2227290FE2
:10017000311D88E12B36380724F0809166008150CC
:1001800006C0285E374134F4809166008F5F80930B
:10019000660001C0C1E050938100CC2369F2CF9189
:1001A00008950E9470000E9457008FEF84B908954F
:1001B000CFEFD4E0DEBFCDBF0E94D1008091C00060
:1001C00087FF08C08091C6008093000180910001E4
:1001D0008093C6008091000199278133910569F0D1
:1001E000823391051CF4C09759F0E8CF863491050D
:1001F00059F08335910531F0E1CF85E085B9DECF47
:1002000015B8DCCF15B802C081E085B982E390E073
:100210000E944B0085E085B985E090E00E944B008C
:02022000CDCF40
:020222003100A9
:00000001FF
