:100000000C942E000C9449000C9449000C94490067
:100010000C9449000C9449000C9449000C9449003C
:100020000C9449000C9449000C9449000C9449002C
:100030000C9449000C9449000C9449000C9449001C
:100040000C9449000C9449000C9449000C9449000C
:100050000C9449000C9449000C94490011241FBED3
:10006000CFEFD4E0DEBFCDBF11E0A0E0B1E0EEEE17
:10007000F1E002C005900D92A030B107D9F711E070
:10008000A0E0B1E001C01D92A130B107E1F70C94EE
:10009000C7000C94000001972FEF8F3F920731F0BB
:1000A00020E000002F5F293AE0F3F5CF0895019793
:1000B0002FEF8F3F920731F02CE70000215027FFF0
:1000C000FCCFF5CF0895CF93C0E080E88093610026
:1000D00083E080936100C093700088E08093B60055
:1000E00088EC8093B300C0936E0081E08093810020
:1000F0008093B0008091B600282F33272170307094
:100100008091B600992784709070282B392B232B6F
:1001100089F788EE93E00E9457004FEF51E0F89482
:1001200046BB47BB10928500109284001092B2002B
:10013000B99BFECF109281007894B09B03C02FEF43
:100140003FEF0AC09091840080918500282F3327CB
:10015000322F2227290F311D88E12B36380724F052
:1001600080916600815006C0285E374134F480914A
:1001700066008F5F8093660001C0C1E050938100EC
:10018000CC2369F2CF9108950E9463000895CFEFC8
:10019000D4E0DEBFCDBF0E94C400209A22982498EC
:1001A00080910001882311F4289A14C080910001E5
:1001B000813011F428980EC080910001823051F4F2
:1001C000289882E390E00E944B00289A85E090E016
:1001D0000E944B001A9B07C01C9B03C01092000199
:0E01E000DFCF81E001C082E080930001D9CF23
:00000001FF
