:100000000C942E000C9449000C9449000C94490067
:100010000C9449000C949C000C9449000C944900E9
:100020000C9449000C9449000C9449000C9449002C
:100030000C9449000C94E2010C949F010C9449002B
:100040000C9449000C9449000C9449000C9449000C
:100050000C9449000C9449000C94490011241FBED3
:10006000CFEFD4E0DEBFCDBF11E0A0E0B1E0EEED18
:10007000F4E002C005900D92A030B107D9F711E06D
:10008000A0E0B1E001C01D92AE32B107E1F70C94DF
:1000900022010C9400008B9A839A80917A008068E8
:1000A00080937A0080917A00806480937A008091B6
:1000B0007A0084FFFCCF80917A00806480937A007C
:1000C00080917A0084FFFCCF8091780080930101B9
:1000D00080917900809300018B98839880917A00B9
:1000E0008F7780937A000895F894809170008E7FC6
:1000F0008093700088E08093B6001092B2008091E7
:10010000B00085608093B0008091B600282F33271F
:10011000217030708091B600992784709070282BE0
:10012000392B232B89F78FEF87BB8091700081607B
:1001300080937000789408951F920F920FB60F92DB
:1001400011240F900FBE0F901F90189501972FEF5D
:100150008F3F920751F02CE70000215027FFFCCF82
:1001600001972FEF8F3F9207B1F70895CF93C0E02B
:1001700080E880936100C093700088E08093B600AF
:100180008CE38093B300C0936E0081E08093810084
:100190008093B0008091B600282F332721703070F3
:1001A0008091B600992784709070282B392B232BCF
:1001B00089F788EE93E00E94A6004FEF51E0F89493
:1001C00046BB47BB10928500109284001092B2008B
:1001D000B99BFECF109281007894B09B13C02FEF93
:1001E0003FEF8AE62030380734F080916600815076
:1001F0008093660013C0215F38467CF480916600CE
:100200008F5FF6CF9091840080918500282F33274F
:10021000322F2227290F311DE4CFC1E050938100F6
:10022000CC2369F2CF9108950E94B60010927C0011
:1002300083E880937A000E9474000E9470018FED21
:1002400084B90895CFEFD4E0DEBFCDBF0E94140182
:1002500085B18F6D85B90E94410220E099278337CF
:100260009105D9F08437910584F587369105B1F170
:10027000822F992783379105B1F084379105BCF41B
:100280008736910539F18FE30E9415020E944102E1
:1002900020E099278337910529F723E7822F9927B3
:1002A0008337910551F783E70E941502EFCF84371A
:1002B000910549F70E944B00809100010E941502B0
:1002C000809101010E941502E1CF8437910581F6EA
:1002D00024E7CECF87E60E941502D8CF27E6C8CF05
:1002E000F89420E030E02093C5008FE090E0809308
:1002F000C4001092C00088E98093C10086E080931A
:10030000C20084E091E090931501809314019093D2
:100310001B0180931A018EE191E090930301809379
:100320000201909317018093160130931D012093D1
:100330001C013093190120931801789408951F929D
:100340000F920FB60F9211248F939F93EF93FF9309
:1003500080911C0190911D01892B59F1E0911401AC
:10036000F091150181918093C60081E0E431F80796
:10037000C8F4F0931501E093140180911C01909151
:100380001D01019790931D0180931C0180911C0118
:1003900090911D01892B69F48091C1008F7D80931C
:1003A000C10007C084E091E090931501809314018F
:1003B000E4CFFF91EF919F918F910F900FBE0F901F
:1003C0001F9018951F920F920FB60F9211242F9322
:1003D0008F939F93EF93FF93E0911601F091170194
:1003E0008091C60080838091180190911901019637
:1003F0009093190180931801809116019091170133
:10040000019621E08E32920710F08EE191E09093F8
:10041000170180931601FF91EF919F918F912F917A
:100420000F900FBE0F901F901895282F80911C01E0
:1004300090911D014097D0F7F89480911C01909104
:100440001D01019690931D0180931C01E0911A01FA
:10045000F0911B01208380911A0190911B0101965C
:1004600021E08431920710F084E091E090931B0129
:1004700080931A018091C10080628093C1007894BA
:1004800008958091180190911901892BD1F3F89466
:10049000809118019091190101979093190180930F
:1004A0001801E0910201F0910301219181E0EE3207
:1004B000F80738F08EE191E09093030180930201F8
:1004C00004C0F0930301E09302017894822F9927EE
:0E04D0000895809118019091190199270895BF
:00000001FF
