:100000000C942E000C9449000C9449000C94490067
:100010000C9449000C94AC010C9449000C944900D8
:100020000C9449000C949B010C948A010C946B0174
:100030000C9449000C944B030C9408030C94490055
:100040000C9449000C9449000C9449000C9449000C
:100050000C9449000C9449000C94490011241FBED3
:10006000CFEFD4E0DEBFCDBF11E0A0E0B1E0E0EB28
:10007000F7E002C005900D92A030B107D9F711E06A
:10008000A0E0B1E001C01D92A333B107E1F70C94E9
:100090006F020C9400001F93182F82E70E947E03CA
:1000A00081E00E947E03812F0E947E0388E50E94EA
:1000B0007E031F91089586E60E947E0384E00E94DD
:1000C0007E0380E00E947E0381EE0E947E0380E03A
:1000D0000E947E0380E00E947E0388E50E947E03EA
:1000E00008950F931F938C0184E70E947E0382E0A2
:1000F0000E947E03812F99270E947E03802F0E94F9
:100100007E0388E50E947E031F910F910895CF938F
:10011000DF93CDB7DEB728970FB6F894DEBF0FBEDA
:10012000CDBF29833A834B835C836D837E838F832A
:10013000988784E50E947E0388E00E947E038C817C
:100140000E947E038B810E947E0389819A81AB810C
:10015000BC81892F9A2FAB2FBB270E947E038981F8
:100160000E947E038D810E947E038E810E947E0309
:100170008F810E947E0388850E947E0388E50E940D
:100180007E0328960FB6F894DEBF0FBECDBFDF9179
:10019000CF910895AF92BF92CF92DF92EF92FF92EC
:1001A0000F931F93CF93DF93CDB7DEB728970FB68A
:1001B000F894DEBF0FBECDBFF894F0918400B091EB
:1001C0008500A0910601E0900201F09003010091EA
:1001D000040110910501E982FA820B831C83E091EE
:1001E0000101ED83789429813A814B815C816D8195
:1001F0007A2F8B2F9F2F28960FB6F894DEBF0FBE55
:10020000CDBFDF91CF911F910F91FF90EF90DF90C5
:10021000CF90BF90AF9008958B9A839A80917A0087
:10022000806880937A0080917A00806480937A005D
:1002300080917A0084FFFCCF80917A008064809363
:100240007A0080917A0084FFFCCF909178008091B1
:100250007900282F332722953295307F3227207F4F
:1002600032278B98839880917A008F7780937A00D9
:10027000290F311DC9010895F894809170008E7F77
:100280008093700088E08093B6001092B200809155
:10029000B00085608093B0008091B600282F33278E
:1002A000217030708091B600992784709070282B4F
:1002B000392B232B89F78FEF87BB809170008160EA
:1002C00080937000109285001092840081E08093EA
:1002D0008100789408951F920F920FB60F92112407
:1002E0008F939F9390910001943239F0992341F4B8
:1002F00084B58F7E84BD98E403C084B5806184BDDD
:100300009150909300019F918F910F900FBE0F908D
:100310001F9018951F920F920FB60F9211248F9372
:1003200080910001813009F400008F910F900FBE81
:100330000F901F9018951F920F920FB60F921124D5
:100340008F93809106018F5F809306018F910F90AC
:100350000FBE0F901F9018951F920F920FB60F921D
:1003600011248F939F93AF93BF931092850085E1E3
:1003700080938400789410920601809101018F3F50
:1003800031F0809101018F5F8093010115C01092BF
:1003900001018091020190910301A0910401B091AB
:1003A00005010196A11DB11D8093020190930301E7
:1003B000A0930401B0930501BF91AF919F918F91DC
:1003C0000F900FBE0F901F9018958FE787BD81E0AB
:1003D00080936E00089561507040804090406F3F60
:1003E0002FEF72072FEF82072FEF920751F02CE7C4
:1003F0000000215027FFFCCF61507109810991094C
:10040000B0F70895CF93C0E0C093700088E0809368
:10041000B6008CE38093B300C0936E0081E08093BC
:1004200081008093B0008091B600282F332721707F
:1004300030708091B600992784709070282B392BEA
:10044000232B89F760E07DE780E090E00E94EB01DC
:100450004FEF51E0F89446BB47BB109285001092D5
:1004600084001092B200B99BFECF10928100789464
:10047000B09B13C02FEF3FEF8AE62030380730F0F3
:100480008091660081508093660013C0215F3846DA
:1004900078F4809166008F5FF6CF90918400809110
:1004A0008500282F3327322F2227290F311DE4CF33
:1004B000C1E050938100CC2369F2CF9108950E944E
:1004C000020210927C0083E880937A000E943C0133
:1004D0000E94D9020E94E5018FED84B90895C7EF0B
:1004E000D4E0DEBFCDBF0E945F0285B18F6D85B9BC
:1004F0000E94AA0320E099278736910511F18836DA
:100500009105B4F58435910509F447C08636910507
:1005100009F447C0822F992787369105C1F08836A4
:100520009105DCF48435910559F18636910501F782
:100530000E945B000E94AA0320E09927873691055C
:10054000F1F627E6822F99278736910541F782E257
:1005500084BD81E00E944B00CBCF8337910519F118
:100560008437910529F60E940C010E947100C0CFCA
:1005700083379105A1F08437910561F624E7CACF4E
:100580000E94CA0029833A834B835C836D837E83F8
:100590008F8398870E948700ABCF24E5BBCF23E7EA
:1005A000B9CF26E6B7CF80E284BD80E00E944B0041
:1005B0009FCFF89420E030E02093C50087E090E0E2
:1005C0008093C4001092C00088E98093C10086E047
:1005D0008093C20089E091E090931A018093190101
:1005E0009093200180931F0183E291E09093080192
:1005F0008093070190931C0180931B01309322018B
:100600002093210130931E0120931D0178940895B9
:100610001F920F920FB60F9211248F939F93EF9317
:10062000FF938091210190912201892B59F1E09152
:100630001901F0911A0181918093C60081E0E9319E
:10064000F807C8F4F0931A01E09319018091210191
:100650009091220101979093220180932101809132
:10066000210190912201892B69F48091C1008F7D35
:100670008093C10007C089E091E090931A018093B4
:100680001901E4CFFF91EF919F918F910F900FBED1
:100690000F901F9018951F920F920FB60F92112472
:1006A0002F938F939F93EF93FF93E0911B01F09112
:1006B0001C018091C600808380911D0190911E01D4
:1006C000019690931E0180931D0180911B019091D2
:1006D0001C01019621E08333920710F083E291E040
:1006E00090931C0180931B01FF91EF919F918F913B
:1006F0002F910F900FBE0F901F901895282F80916B
:100700002101909122014097D0F7F8948091210126
:100710009091220101969093220180932101E09112
:100720001F01F0912001208380911F0190912001F1
:10073000019621E08931920710F089E091E09093D1
:10074000200180931F018091C10080628093C100CD
:100750007894089580911D0190911E01892BD1F309
:10076000F89480911D0190911E01019790931E01B4
:1007700080931D01E0910701F0910801219181E032
:10078000E333F80738F083E291E090930801809317
:10079000070104C0F0930801E09307017894822FC9
:1007A0009927089580911D0190911E019927089520
:00000001FF
