:100000000C940B010C942A010C942A010C942A01E3
:100010000C942A010C942A010C942A010C942A01B4
:100020000C942A010C942A010C9484050C942A0146
:100030000C942A010C942A010C942A010C942A0194
:100040000C942A010C942A010C942A010C942A0184
:100050000C942A010C942A010C942A010C94A704F4
:100060000C942A010C942A010C942A010C942A0164
:100070000C942A010C942A010C942A010C942A0154
:100080000C9445020C94D8010C942A010C94E201C2
:100090000C942A010C942A01120100020000004075
:1000A0008117AF0B001001020301090220000101BA
:1000B0000080320904000002FFFFFF00070506026E
:1000C00010000007058202100000120353007400A4
:1000D0007200610077006D0061006E003A03460017
:1000E0006C0079006400720061002000540072000E
:1000F00069006700670065007200200043006F0020
:100100006E00740072006F006C00200031002E0041
:100110003100610031000C0331002E0030002E0050
:10012000300004030904B403B003AB03A603A00327
:100130009A0394038E03880381037A0373036B038A
:1001400063035B0353034A03410338032F0325036F
:100150001B0311030703FC02F102E602DB02D002DB
:10016000C402B802AC02A002940288027C026F02B0
:10017000630256024A023D023102250218020C02B5
:100180000002F301E701DB01CF01C401B801AC01BA
:10019000A10196018B01800176016B01610157017C
:1001A0004D0144013A01310128011F0117010F01DE
:1001B0000601FE00F700EF00E800E100DA00D300DE
:1001C000CD00C700C000BA00B500AF00AA00A4006F
:1001D0009F009A00960091008C00880084008000A7
:1001E0007C007800740071006D006A006700640094
:1001F00061005E005B0058005500530050004E0047
:100200004C00490047004500430041003F003D00CD
:100210003C003A00380011241FBECFEFD0E2DEBF11
:10022000CDBF11E0A0E0B1E0E8EFF8E100E00BBFE6
:1002300002C007900D92A230B107D9F711E0A2E0F9
:10024000B1E001C01D92A733B107E1F70E942C0174
:100250000C947B0C0C940000CFEFD0E2DEBFCDBF3E
:10026000E1E6F0E080E880831082A89587EF84BF04
:10027000E0E6F0E080818861808310820E94530173
:1002800080E090E00C947B0C08950E9443060E944D
:1002900074020E94B70AF9CF0E9442050E943102FF
:1002A0000E94A40A08950E944C010E9445010895ED
:1002B0002FB7F89490939900809398002FBF0895DA
:1002C0002FB7F89490939B0080939A002FBF0895C6
:1002D0002FB7F89490939D0080939C002FBF0895B2
:1002E0002FB7F89490939700809396002FBF0895AE
:1002F0002FB7F89490939500809394002FBF0895A2
:100300002FB7F89480919400909195002FBF089595
:100310002FB7F89480919600909197002FBF089581
:100320002FB7F89480919800909199002FBF08956D
:100330002FB7F89480919A0090919B002FBF089559
:100340002FB7F89480919C0090919D002FBF089545
:1003500088B1877888B987B18F6787B92FB7F89444
:100360008AE090E090939900809398002FBF8FB718
:10037000F89410929B0010929A008FBF8FB7F89458
:1003800010929D0010929C008FBF2FB7F8948DE4BF
:1003900090E090939700809396002FBF8AEA809315
:1003A00090008BE18093910087E080937100089525
:1003B0001F920F920FB60F9211240F900FBE0F9045
:1003C0001F9018951F920F920FB60F9211240F9045
:1003D0000FBE0F901F901895809103018F5F80933F
:1003E000030108950F9380910701815080930701C5
:1003F000882359F400E023E040E050E060E070E042
:1004000080E090E00E941C0543980F9108950F939F
:1004100080910601815080930601882359F400E001
:1004200022E040E050E060E070E080E090E00E9478
:100430001C0542980F9108950F93809105018150FA
:1004400080930501882359F400E021E040E050E06A
:1004500060E070E080E090E00E941C0540980F9101
:1004600008958AB1806F8AB984B18F7184B985B1DA
:10047000806E85B98DB1877E8DB98EB180638EB95E
:100480000E94A8010E949C0408951F920F920FB62B
:100490000F9211242F933F934F935F936F937F930A
:1004A0008F939F93AF93BF93EF93FF93809104013A
:1004B000882339F080919100887F80939100109279
:1004C00004010E948D0AFF91EF91BF91AF919F911E
:1004D0008F917F916F915F914F913F912F910F90ED
:1004E0000FBE0F901F9018952F923F924F925F92E0
:1004F0006F927F928F929F92AF92BF92CF92DF9234
:10050000EF92FF920F931F93CF93DF93CDB7DEB798
:1005100029970FB6F894DEBF0FBECDBF8091300192
:10052000882309F4F0C186E08093E9008091E80017
:1005300082FD0CC01F82A0E090E0E0E0F0E060E00F
:1005400070E040E050E020E030E03FC08091F100FA
:100550009927F82FEE278091F100E80FF11D809187
:10056000F1009927782F66278091F100680F711D9F
:100570008091F1009927582F44278091F100480F6E
:10058000511D8091F1009927382F22278091F10089
:10059000280F311DA091F1009091F1000091F10020
:1005A0000F838091F1008091F1008091F1008091A2
:1005B000F1008091F1008091E8008B7F8093E8004A
:1005C0008091E8008F778093E8000A2F1127198720
:1005D000088701FF26C08FB7F894F0939900E09345
:1005E00098008FBF8FB7F89470939B0060939A0028
:1005F0008FBF8FB7F89450939D0040939C008FBF9E
:100600008FB7F89430939700209396008FBF809116
:1006100091009770887F982B9093910081E0809350
:100620000201188512FF2BC080919100887F809372
:1006300091002FB7F89480E09FEF909395008093FE
:1006400094002FBF2FB7F8948FEF90E0909399000C
:10065000809398002FBF2FB7F8948FEF9FEF909360
:100660009700809396002FBF91E0909304018091B2
:100670009100887F8160809391009093020128858A
:1006800024FF03C081E080930201388535FF05C057
:100690000E94930A81E080930201888580FF29C02F
:1006A0008091E00081608093E000109291005C985E
:1006B0005D985E985F9819821A821B821C820BC01B
:1006C00089819A81AB81BC810196A11DB11D89836D
:1006D0009A83AB83BC8389819A81AB81BC8180572B
:1006E0009141A140B04060F3E0910001F09101011F
:1006F000099580910201813009F094C082E88093CD
:10070000E9008091E80080FF8DC00E94880B222EB6
:10071000332E442E552E662E772E882E992E8FB787
:10072000F89420919400309195003E832D838FBFE3
:100730002092F10008E0222D332D442D552D662DF9
:10074000772D882D992D0E94C30B2093F10000E195
:10075000222D332D442D552D662D772D882D992D45
:100760000E94C30B2093F10008E1222D332D442D6C
:10077000552D662D772D882D992D0E94C30B209322
:10078000F10000E2222D332D442D552D662D772DBD
:10079000882D992D0E94C30B2093F10008E2222D91
:1007A000332D442D552D662D772D882D992D0E94A2
:1007B000C30B2093F10000E3222D332D442D552D42
:1007C000662D772D882D992D0E94C30B2093F10063
:1007D00008E3222D332D442D552D662D772D882DA0
:1007E000992D0E94C30B2093F1003D813093F100BD
:1007F0000D811E81812F99278093F1001092F100C5
:1008000088B18093F1001092F1001092F1001092E3
:10081000F1001092F1008091E8008F778093E8005A
:1008200010920201188513FF32C02FB7F89480E0B0
:100830009EEF90939900809398002FBF2FB7F89464
:100840008FEF9EEF90939700809396002FBF2FB766
:10085000F8948FEF9FEF90939500809394002FBFB3
:100860005C9A80919100887F8160809391002FB77E
:10087000F89480919400909195002FBF8F5F9F4FC7
:10088000B1F35F9A80919100887F809391003885C1
:1008900036FF39C08F81E82EFF24E0FE10C0419A58
:1008A000809105018F5F8093050101E021E04FEF0A
:1008B0005FE760E070E08CE192E00E941C05E1FEE1
:1008C00010C0429A809106018F5F8093060101E07B
:1008D00022E04FEF5FE760E070E087E092E00E9487
:1008E0001C05E2FE10C0439A809107018F5F809340
:1008F000070101E023E04FEF5FE760E070E082EF87
:1009000091E00E941C0529960FB6F894DEBF0FBE39
:10091000CDBFDF91CF911F910F91FF90EF90DF90AE
:10092000CF90BF90AF909F908F907F906F905F908F
:100930004F903F902F90089510921E0110921F012A
:1009400082E085BDEEE6F0E08081808308951F920D
:100950000F920FB60F921124EF92FF920F931F93F5
:100960002F933F934F935F936F937F938F939F93B7
:10097000AF93BF93CF93DF93EF93FF9380916E007C
:1009800080936E0090E2E92E91E0F92E0AE111E0E9
:10099000C0E0D0E0FE01E25EFE4F8081813039F59B
:1009A000FE01EE0FFF1FEE0FFF1FE85DFE4F80817F
:1009B0009181A281B3810197A109B10980839183BB
:1009C000A283B38380819181A281B3810097A10525
:1009D000B10569F4D7012D913D914D915C91208332
:1009E000318342835383D801ED91FC91099521967F
:1009F00084E090E0E80EF91E0E5F1F4FC230D10573
:100A000049F680916E0080936E00FF91EF91DF9127
:100A1000CF91BF91AF919F918F917F916F915F9196
:100A20004F913F912F911F910F91FF90EF900F9059
:100A30000FBE0F901F9018950F93CF93DF93A22FA7
:100A4000BB27FD01EE0FFF1FE65EFE4F9183808303
:100A5000FD01EE0FFF1FEE0FFF1FCF01805E9E4FC7
:100A6000EC01488359836A837B83E85DFE4F4083B2
:100A7000518362837383A25EBE4F0C93DF91CF914B
:100A80000F91089510920A017894E7EDF0E08081CB
:100A90008F7B8083808180688083E8EDF0E08081B7
:100AA0008069808380818F7B808380818160808367
:100AB00010920C0110920B01089578940E94F10994
:100AC00008958091D70081608093D7008EE089BD22
:100AD00009B400FEFDCF8091D8008F7D8093D800AF
:100AE0008091E20081608093E2008091E200886062
:100AF0008093E2000E94D4068091E0008E7F809374
:100B0000E0001092300108951F920F920FB60F92DD
:100B100011242F933F934F935F936F937F938F9302
:100B20009F93AF93BF93EF93FF938091DA0080FF81
:100B300024C08EEF8093DA008091D90080FF15C029
:100B400091E09093300181E68093090190930A012E
:100B50008091E20088608093E2000E9461058091AC
:100B6000E0008E7F8093E00008C01092300182E6A2
:100B70008093090181E080930A018091DA0081FF6E
:100B80000FC08DEF8093DA008091D90081FF02C001
:100B900083E601C084E68093090181E080930A0125
:100BA0008091E10082FF05C08BEF8093E1000E94FD
:100BB000EC018091E10080FF16C08EEF8093E10090
:100BC0008091E20080618093E2008FEE8093E100EB
:100BD0008091D80080628093D80085E680930901D7
:100BE00081E080930A018091E10084FF13C080912D
:100BF000D8008F7D8093D8008FEE8093E1008091A4
:100C0000E2008F7E8093E20086E68093090181E016
:100C100080930A018091E10085FF13C08091E2007A
:100C20008F7E8093E2008FED8093E1008091E2005F
:100C30008F7D8093E20087E68093090181E08093B5
:100C40000A018091E10083FF0DC087EF8093E100EE
:100C50000E94D40688E68093090181E080930A010E
:100C600080930801FF91EF91BF91AF919F918F9178
:100C70007F916F915F914F913F912F910F900FBE98
:100C80000F901F9018958091D90080FF16C0809119
:100C90003001882391F491E09093300181E68093B4
:100CA000090190930A018091E20088608093E2003C
:100CB0008091E0008E7F8093E00080910A01813076
:100CC00011F410920A0180910801813041F480935F
:100CD000EA001092EA00109233011092080110927B
:100CE000E9008091E80083FF02C00E943807089560
:100CF0009091EB0091609093EB008093EC008091D9
:100D0000ED008270862B8093ED008091ED00826073
:100D10008093ED008091EE00992787FD90958827BC
:100D2000990F881F992708958091F400811181E01F
:100D3000482F20E030E0822F40FF02C0992708951D
:100D40002F5F3F4F2930310511F04695F4CF80E0F9
:100D500090E00895FB018093E90004C081918093A5
:100D6000F10041508091E80085FF02C04423B1F7B3
:100D7000842F99270895FB018093E90004C0809196
:100D8000F100819341508091E80085FF02C0442327
:100D9000B1F7842F992708958093E900EBEEF0E0F6
:100DA00080818062808308958091D8008F7B8093BA
:100DB000D8008091D90081FF0EC01092E900809187
:100DC000EB0080FD08C01092E90060E382E00E9421
:100DD00078069927089580E090E00895E9EAF0E028
:100DE0009081916090838093AA00EBEAF0E06083A9
:100DF0008081826080838091AC0099278078907098
:100E000008958930910518F480E090E008958131CB
:100E1000910518F481E090E008958132910518F46D
:100E200082E090E008958134910518F483E090E029
:100E300008958138910518F484E090E0089521E048
:100E40008130920718F485E090E008958150924037
:100E500018F486E090E0089587E090E008951092FD
:100E60000E0110920F01109230011092330108957B
:100E70009091F100909310016091F1006630F9F0CB
:100E8000673068F4613009F40EC1613008F475C14F
:100E9000633009F441C1653009F0C1C1CAC069308D
:100EA00009F4E8C06A3020F4683009F0B8C1A5C080
:100EB0006A3009F493C16B3009F0B1C19FC1903819
:100EC00009F099C010920D016091F1008091F1003C
:100ED000813019F0823089F406C082E180933401B8
:100EE00088E990E005C080E2809334018AEA90E0CE
:100EF000909336018093350105C00E941F09882315
:100F000009F46EC18091F1008091F1002091F1000F
:100F10008091F1009927582F4427420F511D80914D
:100F2000E800877F8093E80080913401282F3327E1
:100F30002417350758F42F733070232B21F481E0E8
:100F400080930D0105C010920D0102C04093340141
:100F5000E0913501F09136019091340117C08091F4
:100F6000E80080FFFCCF30E00AC03F5F292F21500E
:100F7000313439F084918093F1003196922F992386
:100F8000A1F78091E8008E7F8093E800992359F0C3
:100F90008091E80082FFE3CFF0933601E0933501C2
:100FA0009093340106C0F0933601E093350110921E
:100FB00034018091E8008E7F8093E8008091E80002
:100FC00082FF0BC08091E8008B7F8093E8008091C6
:100FD000E8008F778093E800089580910D018130BB
:100FE00029F48091E8008E7F8093E8008091E800EA
:100FF00082FFFCCFE7CF66E0FDC09038C1F480915E
:10100000E800877F8093E800809133018093F100AE
:101010008091E8008E7F8093E8008091E8008F77D0
:101020008093E8008091E80082FFFCCFCBCF68E09E
:10103000E1C09923E9F49091E3008091F1008F776A
:101040009078892B8093E3008091E800877F8093DC
:10105000E8008091E8008E7F8093E8008091E800AE
:1010600080FFFCCF8091E30080688093E3000895C7
:1010700065E0C0C09923A9F49091F100923008F086
:10108000AFC08091E800877F8093E80090933301A0
:101090008091E8008E7F8093E800892F0E94DC0910
:1010A000089569E0A7C09330A8F5992309F498C082
:1010B000913009F495C08091F1009091F10088235E
:1010C00009F08EC0E091F100EF77E093E9008091A4
:1010D000EB0080FF85C0EE23B1F08091EB008061D2
:1010E0008093EB0081E090E00E2E02C0880F991FE4
:1010F0000A94E2F78093EA001092EA008091EB00F4
:1011000088608093EB001092E900FF27E25FFE4FBA
:10111000108228C061E06EC0933068F5913009F408
:101120005FC0923009F08AC08091F1009091F10087
:10113000882309F055C0E091F100EF7709F450C021
:10114000E093E9008091EB0080FF4AC08091EB00C2
:1011500080628093EB001092E900FF27E25FFE4F70
:1011600081E080838091E800877F8093E800809110
:10117000E8008E7F2FCF63E03DC0892F80588330F9
:10118000C8F58091F1008091F100E091F100913873
:1011900021F0923851F0903819F58091E800877F5E
:1011A0008093E8001092F1000DC08091E800877FE5
:1011B0008093E800FF27EF77F070E25FFE4F8081B9
:1011C0008093F1001092F1008091E8008E7F80936F
:1011D000E8008091E80082FFFCCFF4CE913849F41A
:1011E0008091EB0080628093EB008091E800877F24
:1011F000F1CE6AE0892F0E948B0908959130F1F4B5
:101200008091E800877F8093E8008091E8008E7FDE
:101210008093E8008091E80080FD10C0FBCF892F0B
:101220000E948B09882351F48091EB0080628093A7
:10123000EB008091E800877F8093E8000895833079
:1012400039F5613069F0613028F0623079F063304F
:10125000F9F412C084E08093340182E291E011C07D
:1012600082E1809334018AEC90E00BC08AE38093A2
:1012700034018CED90E005C08CE08093340186E170
:1012800091E0909336018093350181E090E00895DC
:1012900080E090E008958091F1008091F10020912C
:1012A000F1008091F1009927982F8827820F911DD6
:1012B00090933201809331018091E800877F809381
:1012C000E8008091E8008E7F8093E8008091E8003C
:1012D00080FFFCCF08958091F1008091F100209172
:1012E000F1008091F1009927982F8827820F911D96
:1012F00090933201809331018091E800877F809341
:10130000E8008091E8008E7F8093E8008091E800FB
:1013100080FFFCCF08958091F1008091F1006A3048
:1013200019F080E090E008950E946B0981E090E060
:1013300008952091F1008091F1009927982F882736
:10134000820F911D909332018093310110923401EC
:101350003091F1008091F1002091E800277F2093E7
:10136000E8009927982F8827830F911D892B51F02A
:101370008091E8008E7F8093E8008091E80082FDF4
:1013800010C003C010923401F3CF81E0813029F402
:101390008091E8008E7F8093E8008091E80082FFD2
:1013A000FCCF8091E8008B7F8093E8008091E8007B
:1013B0008F778093E80008950F931F9309EE10E054
:1013C00086E0F801808360E180E80E94780682E888
:1013D000F801808360E181E80E9478061F910F91F7
:1013E000089513BE83B7856083BF8895089513BEA3
:1013F00083B7816083BF8895089513BE83B78360E8
:1014000083BF8895089513BE83B7876083BF88958F
:10141000089513BE83B78D6083BF8895089513BE6A
:1014200083B78F6083BF8895089580917C00807F0B
:1014300080937C0080917C00826080937C0080910E
:101440007A00806480937A0080917A0084FFFCCFD8
:1014500020917800809179009927982F8827820F12
:10146000911D089580917C00807F80937C00809105
:101470007C00816080937C0080917A0080648093FE
:101480007A0080917A0084FFFCCF209178008091CF
:1014900079009927982F8827820F911D08958091B0
:1014A0007C00807F80937C0080917C0080937C0016
:1014B00080917A00806480937A0080917A0084FF22
:1014C000FCCF20917800809179009927982F882768
:1014D000820F911D08950E944F0ABC0126E231E05F
:1014E000F901859194918617970718F48CEE9FEF78
:1014F000089540E050E002C02E5F3F4FA42FF90155
:10150000859194914F5F5F4F68177907A8F38A2FF1
:10151000992787FD909545970895809119018F5FD0
:1015200080931901089510921101109212011092E6
:1015300013011092140110921501109216011092CD
:1015400017011092180108951092190110921101BB
:1015500010921201109213011092140110921501B1
:1015600010921601109217011092180108957F929F
:101570008F929F92AF92BF92CF92DF92EF92FF92A3
:101580000F931F93CF93DF93CDB7DEB760970FB65E
:10159000F894DEBF0FBECDBF809011019090120174
:1015A000A0901301B0901401C0901501D0901601C5
:1015B000E0901701F090180105C080911901815049
:1015C0008093190189829A82AB82BC82CD82DE82AD
:1015D000EF82F886A091190181E089871A861B861F
:1015E0001C861D861E861F86188A01E0080D0815B8
:1015F00008F080E01A85190DB1E0191508F0B0E087
:10160000810F91E0811708F090E0B92B182F2B85FE
:101610002A0D772473942A1508F077248B2F820FD4
:1016200091E0821708F090E0792A282F3C853B0D45
:10163000B1E03B1508F0B0E0872D830F91E08317F0
:1016400008F090E0B92B382F4D854C0D772473941A
:101650004C1508F077248B2F840F91E0841708F045
:1016600090E0792A482F5E855D0DB1E05D1508F0A8
:10167000B0E0872D850F91E0851708F090E0B92B39
:10168000582F6F856E0DF1E06E1508F0F0E09B2F7E
:10169000960F81E0961708F080E08F2B78897F0DF8
:1016A000870F802E912EA22EB32EC42ED52EE92E7A
:1016B000F82EAA2309F081CFE981E0931101FA8184
:1016C000F09312018B8180931301EC81E09314015C
:1016D000FD81F09315018E8180931601EF81E093D7
:1016E0001701F885F093180160960FB6F894DEBFE5
:1016F0000FBECDBFDF91CF911F910F91FF90EF9063
:10170000DF90CF90BF90AF909F908F907F90089583
:101710002F923F924F925F926F927F928F929F9201
:10172000AF92BF92CF92DF92EF92FF920F931F93EF
:101730000E94B70A209011013090120140901301CD
:10174000509014016090150170901601809017015F
:1017500090901801222D332D442D552D662D772D77
:10176000882D992D1F910F91FF90EF90DF90CF90D2
:10177000BF90AF909F908F907F906F905F904F90B1
:101780003F902F900895A0E1B0E0E9ECFBE00C94CD
:10179000440C222E332E442E552E662E772E882E64
:1017A000992E002309F464C088E0FE01319611925D
:1017B0008A95E9F729833A834B835C836D837E8323
:1017C0008F82988780E2801B4D815E816F81788552
:1017D000E82FFF27E7FDF0951816B4F0DB01CA01EA
:1017E000BB0F880B982FDC018D879E87AF87B88B46
:1017F000882799278E1B9F0B04C075956795579571
:1018000047958A95D2F728C0202F332727FD30959A
:10181000DB01CA01022E04C0B595A795979587955F
:101820000A94D2F78D879E87AF87B88B04C0440F88
:10183000551F661F771FEA95D2F789819A81AB8180
:10184000BC8104C0B695A795979587952A95D2F740
:10185000482B592B6A2B7B2B49875A876B877C87B0
:1018600029843A844B845C846D847E848F84988838
:10187000222D332D442D552D662D772D882D992D14
:10188000E2E160960C94600C2F923F924F925F922F
:101890006F927F928F929F92AF92BF92CF92DF9280
:1018A000EF92FF920F931F93CF93DF93CDB7DEB7E5
:1018B000CA1BDB0B0FB6F894DEBF0FBECDBF099479
:1018C0002A88398848885F846E847D848C849B84D0
:1018D000AA84B984C884DF80EE80FD800C811B81DE
:1018E000AA81B981CE0FD11D0FB6F894DEBF0FBE0D
:0818F000CDBFED010895FFCF0B
:0218F80000F0FE
:00000001FF
