:100000000C9405010C9424010C9424010C942401FB
:100010000C9424010C9424010C9424010C942401CC
:100020000C9424010C9424010C944C040C94240191
:100030000C9424010C9424010C9424010C942401AC
:100040000C9424010C9424010C9424010C9424019C
:100050000C9424010C9424010C9424010C9424018C
:100060000C9424010C9424010C9424010C9424017C
:100070000C9424010C9424010C9424010C9424016C
:100080000C9400020C94D2010C9424010C94DC0119
:100090000C9424010C942401120100020000004081
:1000A0008117AF0B001001020301090220000101BA
:1000B0000080320904000002FFFFFF00070506026E
:1000C00010000007058202100000120353007400A4
:1000D0007200610077006D0061006E002E03460023
:1000E0006C0079006400720061002000540072000E
:1000F00069006700670065007200200043006F0020
:100100006E00740072006F006C000C0331002E0052
:1001100030002E00300004030904B403B003AB0325
:10012000A603A0039A0394038E03880381037A0332
:1001300073036B0363035B0353034A0341033803F5
:100140002F0325031B0311030703FC02F102E60240
:10015000DB02D002C402B802AC02A0029402880200
:100160007C026F02630256024A023D0231022502FE
:1001700018020C020002F301E701DB01CF01C40108
:10018000B801AC01A10196018B01800176016B01E0
:10019000610157014D0144013A01310128011F015C
:1001A00017010F010601FE00F700EF00E800E10073
:1001B000DA00D300CD00C700C000BA00B500AF0020
:1001C000AA00A4009F009A00960091008C0088006D
:1001D000840080007C007800740071006D006A006B
:1001E0006700640061005E005B005800550053002A
:1001F00050004E004C0049004700450043004100BC
:100200003F003D003C003A00380011241FBECFEFF4
:10021000D0E2DEBFCDBF11E0A0E0B1E0ECEBF6E153
:1002200000E00BBF02C007900D92A230B107D9F7D2
:1002300011E0A2E0B1E001C01D92AE31B107E1F7DB
:100240000E9426010C945D0B0C940000CFEFD0E2CD
:10025000DEBFCDBFE1E6F0E080E880831082A895A4
:1002600087EF84BFE0E6F0E08081886180831082C0
:100270000E944D0180E090E00C945D0B08950E9477
:100280000B050E9431020E949909F9CF0E940A04CD
:100290000E94EC010E94860908950E9446010E9476
:1002A0003F0108952FB7F894909399008093980098
:1002B0002FBF08952FB7F89490939B0080939A00D6
:1002C0002FBF08952FB7F89490939D0080939C00C2
:1002D0002FBF08952FB7F8949093970080939600BE
:1002E0002FBF08952FB7F8949093950080939400B2
:1002F0002FBF08952FB7F8948091940090919500A6
:100300002FBF08952FB7F894809196009091970091
:100310002FBF08952FB7F89480919800909199007D
:100320002FBF08952FB7F89480919A0090919B0069
:100330002FBF08952FB7F89480919C0090919D0055
:100340002FBF089588B18F7888B987B1806787B942
:100350002FB7F8948AE090E09093990080939800EA
:100360002FBF8FB7F89410929B0010929A008FBF06
:100370008FB7F89410929D0010929C008FBF2FB7FA
:10038000F8948DE490E090939700809396002FBFAF
:100390008AEA809390008BE18093910087E08093BC
:1003A000710008951F920F920FB60F9211240F90B3
:1003B0000FBE0F901F9018951F920F920FB60F92BD
:1003C00011240F900FBE0F901F901895809103017C
:1003D0008F5F8093030108950E94B9088AB1806FEE
:1003E0008AB984B18F7184B985B1806E85B98DB1B8
:1003F000877E8DB98EB180638EB90E94A201089567
:100400001F920F920FB60F9211242F933F934F9389
:100410005F936F937F938F939F93AF93BF93EF936C
:10042000FF9380910401882339F080919100887FA7
:1004300080939100109204010E946F090E940604AB
:10044000FF91EF91BF91AF919F918F917F916F91AC
:100450005F914F913F912F910F900FBE0F901F9082
:1004600018952F923F924F925F926F927F928F9248
:100470009F92AF92BF92CF92DF92EF92FF920F9333
:100480001F93CF93DF93CDB7DEB726970FB6F894BF
:10049000DEBF0FBECDBF80911701882309F49DC137
:1004A00086E08093E9008091E80082FD03C0A0E02F
:1004B00090E03EC08091F1009927F82FEE278091BF
:1004C000F100E80FF11D8091F1009927782F662740
:1004D0008091F100680F711D8091F1009927582FCC
:1004E00044278091F100480F511D8091F100992718
:1004F000382F22278091F100280F311DA091F100A3
:100500009091F1008091F1008091F1008091F100D3
:100510008091F1008091F1008091F1008091E800DC
:100520008B7F8093E8008091E8008F778093E800CC
:100530000A2F11271E830D8301FF26C08FB7F89461
:10054000F0939900E09398008FBF8FB7F894709361
:100550009B0060939A008FBF8FB7F89450939D00D3
:1005600040939C008FBF8FB7F894309397002093EF
:1005700096008FBF809191009770887F982B909301
:10058000910081E0809302011D8112FF2BC08091B8
:100590009100887F809391002FB7F89480E09FEFBF
:1005A00090939500809394002FBF2FB7F8948FEF0E
:1005B00090E090939900809398002FBF2FB7F89404
:1005C0008FEF9FEF90939700809396002FBF91E05D
:1005D0009093040180919100887F816080939100C5
:1005E000909302012D8124FF03C081E080930201DA
:1005F0008D8185FF05C00E94750981E0809302010D
:100600000D8100FF29C08091E00081608093E000AF
:10061000109291005C985D985E985F9819821A829A
:100620001B821C820BC089819A81AB81BC8101969F
:10063000A11DB11D89839A83AB83BC8389819A8173
:10064000AB81BC8180579141A140B04060F3E09103
:100650000001F0910101099580910201813009F0BA
:1006600087C082E88093E9008091E80080FF80C025
:100670000E946A0A222E332E442E552E662E772E85
:10068000882E992E2093F10008E00E94A50A20935D
:10069000F10000E1222D332D442D552D662D772DAF
:1006A000882D992D0E94A50A2093F10008E1222DA2
:1006B000332D442D552D662D772D882D992D0E9493
:1006C000A50A2093F10000E2222D332D442D552D53
:1006D000662D772D882D992D0E94A50A2093F10073
:1006E00008E2222D332D442D552D662D772D882D92
:1006F000992D0E94A50A2093F10000E3222D332DAD
:10070000442D552D662D772D882D992D0E94A50AF3
:100710002093F10008E3222D332D442D552D662D15
:10072000772D882D992D0E94A50A2093F1002FB7CF
:10073000F89480919400909195002FBF8093F100E0
:10074000892F99278093F1001092F10088B180934E
:10075000F1001092F1001092F1001092F10010924D
:10076000F1008091E8008F778093E80010920201F9
:100770002D8123FF32C02FB7F89480E09EEF909335
:100780009900809398002FBF2FB7F8948FEF9EEFBA
:1007900090939700809396002FBF2FB7F8948FEF18
:1007A0009FEF90939500809394002FBF5C9A809167
:1007B0009100887F8160809391002FB7F894809199
:1007C0009400909195002FBF8F5F9F4FB1F35F9A78
:1007D00080919100887F8093910026960FB6F894BF
:1007E000DEBF0FBECDBFDF91CF911F910F91FF9064
:1007F000EF90DF90CF90BF90AF909F908F907F90C1
:100800006F905F904F903F902F90089508950E94B1
:10081000B9080895109207017894E7EDF0E080811F
:100820008F7B8083808180688083E8EDF0E0808129
:100830008069808380818F7B8083808181608083D9
:100840001092090110920801089578940E94D3082B
:1008500008958091D70081608093D7008EE089BD94
:1008600009B400FEFDCF8091D8008F7D8093D80021
:100870008091E20081608093E2008091E2008860D4
:100880008093E2000E949C058091E0008E7F80931F
:10089000E0001092170108951F920F920FB60F9269
:1008A00011242F933F934F935F936F937F938F9375
:1008B0009F93AF93BF93EF93FF938091DA0080FFF4
:1008C00024C08EEF8093DA008091D90080FF15C09C
:1008D00091E09093170181E68093060190930701C0
:1008E0008091E20088608093E2000E942904809158
:1008F000E0008E7F8093E00008C01092170182E62E
:100900008093060181E0809307018091DA0081FFE6
:100910000FC08DEF8093DA008091D90081FF02C073
:1009200083E601C084E68093060181E0809307019D
:100930008091E10082FF05C08BEF8093E1000E946F
:10094000E6018091E10080FF16C08EEF8093E10008
:100950008091E20080618093E2008FEE8093E1005D
:100960008091D80080628093D80085E6809306014C
:1009700081E0809307018091E10084FF13C08091A2
:10098000D8008F7D8093D8008FEE8093E100809116
:10099000E2008F7E8093E20086E68093060181E08C
:1009A000809307018091E10085FF13C08091E200F0
:1009B0008F7E8093E2008FED8093E1008091E200D2
:1009C0008F7D8093E20087E68093060181E080932B
:1009D00007018091E10083FF0DC087EF8093E10064
:1009E0000E949C0588E68093060181E080930701C0
:1009F00080930501FF91EF91BF91AF919F918F91EE
:100A00007F916F915F914F913F912F910F900FBE0A
:100A10000F901F9018958091D90080FF16C080918B
:100A20001701882391F491E09093170181E6809358
:100A30000601909307018091E20088608093E200B4
:100A40008091E0008E7F8093E000809107018130EB
:100A500011F41092070180910501813041F48093D7
:100A6000EA001092EA0010921A0110920501109209
:100A7000E9008091E80083FF02C00E94000608950B
:100A80009091EB0091609093EB008093EC0080914B
:100A9000ED008270862B8093ED008091ED008260E6
:100AA0008093ED008091EE00992787FD909588272F
:100AB000990F881F992708958091F400811181E092
:100AC000482F20E030E0822F40FF02C09927089590
:100AD0002F5F3F4F2930310511F04695F4CF80E06C
:100AE00090E00895FB018093E90004C08191809318
:100AF000F10041508091E80085FF02C04423B1F726
:100B0000842F99270895FB018093E90004C0809108
:100B1000F100819341508091E80085FF02C0442399
:100B2000B1F7842F992708958093E900EBEEF0E068
:100B300080818062808308958091D8008F7B80932C
:100B4000D8008091D90081FF0EC01092E9008091F9
:100B5000EB0080FD08C01092E90060E382E00E9493
:100B600040059927089580E090E00895E9EAF0E0D3
:100B70009081916090838093AA00EBEAF0E060831B
:100B80008081826080838091AC009927807890700A
:100B900008958930910518F480E090E0089581313E
:100BA000910518F481E090E008958132910518F4E0
:100BB00082E090E008958134910518F483E090E09C
:100BC00008958138910518F484E090E0089521E0BB
:100BD0008130920718F485E090E0089581509240AA
:100BE00018F486E090E0089587E090E00895109270
:100BF0000B0110920C011092170110921A01089526
:100C00009091F10090930D016091F1006630F9F040
:100C1000673068F4613009F40EC1613008F475C1C1
:100C2000633009F441C1653009F0C1C1CAC06930FF
:100C300009F4E8C06A3020F4683009F0B8C1A5C0F2
:100C40006A3009F493C16B3009F0B1C19FC190388B
:100C500009F099C010920A016091F1008091F100B1
:100C6000813019F0823089F406C082E180931B0143
:100C700088E990E005C080E280931B018AEA90E059
:100C800090931D0180931C0105C00E94E7078823F3
:100C900009F46EC18091F1008091F1002091F10082
:100CA0008091F1009927582F4427420F511D8091C0
:100CB000E800877F8093E80080911B01282F33276D
:100CC0002417350758F42F733070232B21F481E05B
:100CD00080930A0105C010920A0102C040931B01D3
:100CE000E0911C01F0911D0190911B0117C08091B2
:100CF000E80080FFFCCF30E00AC03F5F292F215081
:100D0000313439F084918093F1003196922F9923F8
:100D1000A1F78091E8008E7F8093E800992359F035
:100D20008091E80082FFE3CFF0931D01E0931C0166
:100D300090931B0106C0F0931D01E0931C011092DB
:100D40001B018091E8008E7F8093E8008091E8008D
:100D500082FF0BC08091E8008B7F8093E800809138
:100D6000E8008F778093E800089580910A01813030
:100D700029F48091E8008E7F8093E8008091E8005C
:100D800082FFFCCFE7CF66E0FDC09038C1F48091D0
:100D9000E800877F8093E80080911A018093F1003A
:100DA0008091E8008E7F8093E8008091E8008F7743
:100DB0008093E8008091E80082FFFCCFCBCF68E011
:100DC000E1C09923E9F49091E3008091F1008F77DD
:100DD0009078892B8093E3008091E800877F80934F
:100DE000E8008091E8008E7F8093E8008091E80021
:100DF00080FFFCCF8091E30080688093E30008953A
:100E000065E0C0C09923A9F49091F100923008F0F8
:100E1000AFC08091E800877F8093E80090931A012B
:100E20008091E8008E7F8093E800892F0E94A408BB
:100E3000089569E0A7C09330A8F5992309F498C0F4
:100E4000913009F495C08091F1009091F1008823D0
:100E500009F08EC0E091F100EF77E093E900809116
:100E6000EB0080FF85C0EE23B1F08091EB00806144
:100E70008093EB0081E090E00E2E02C0880F991F56
:100E80000A94E2F78093EA001092EA008091EB0066
:100E900088608093EB001092E900FF27E55FFE4F2A
:100EA000108228C061E06EC0933068F5913009F47B
:100EB0005FC0923009F08AC08091F1009091F100FA
:100EC000882309F055C0E091F100EF7709F450C094
:100ED000E093E9008091EB0080FF4AC08091EB0035
:100EE00080628093EB001092E900FF27E55FFE4FE0
:100EF00081E080838091E800877F8093E800809183
:100F0000E8008E7F2FCF63E03DC0892F805883306B
:100F1000C8F58091F1008091F100E091F1009138E5
:100F200021F0923851F0903819F58091E800877FD0
:100F30008093E8001092F1000DC08091E800877F57
:100F40008093E800FF27EF77F070E55FFE4F808128
:100F50008093F1001092F1008091E8008E7F8093E1
:100F6000E8008091E80082FFFCCFF4CE913849F48C
:100F70008091EB0080628093EB008091E800877F96
:100F8000F1CE6AE0892F0E94530808959130F1F460
:100F90008091E800877F8093E8008091E8008E7F51
:100FA0008093E8008091E80080FD10C0FBCF892F7E
:100FB0000E945308882351F48091EB008062809353
:100FC000EB008091E800877F8093E80008958330EC
:100FD00039F5613069F0613028F0623079F06330C2
:100FE000F9F412C084E080931B0186E191E011C006
:100FF00082E180931B018AEC90E00BC08EE280932B
:101000001B018CED90E005C08CE080931B018AE011
:1010100091E090931D0180931C0181E090E0089580
:1010200080E090E008958091F1008091F10020919E
:10103000F1008091F1009927982F8827820F911D48
:1010400090931901809318018091E800877F809325
:10105000E8008091E8008E7F8093E8008091E800AE
:1010600080FFFCCF08958091F1008091F1002091E4
:10107000F1008091F1009927982F8827820F911D08
:1010800090931901809318018091E800877F8093E5
:10109000E8008091E8008E7F8093E8008091E8006E
:1010A00080FFFCCF08958091F1008091F1006A30BB
:1010B00019F080E090E008950E94330881E090E00C
:1010C00008952091F1008091F1009927982F8827A9
:1010D000820F911D909319018093180110921B01AA
:1010E0003091F1008091F1002091E800277F20935A
:1010F000E8009927982F8827830F911D892B51F09D
:101100008091E8008E7F8093E8008091E80082FD66
:1011100010C003C010921B01F3CF81E0813029F48D
:101120008091E8008E7F8093E8008091E80082FF44
:10113000FCCF8091E8008B7F8093E8008091E800ED
:101140008F778093E80008950F931F9309EE10E0C6
:1011500086E0F801808360E180E80E94400582E833
:10116000F801808360E181E80E9440051F910F91A2
:101170000895AAE7B0E08C9180688C93ECE7F0E0EA
:1011800080818F7D808380818F7780838081806460
:1011900080838C91877F8C938C91887F8C938C91AA
:1011A00080648C93089513BE83B7856083BF889550
:1011B000089513BE83B7816083BF8895089513BED9
:1011C00083B7836083BF8895089513BE83B7876014
:1011D00083BF8895089513BE83B78D6083BF8895BC
:1011E000089513BE83B78F6083BF8895089580915B
:1011F0007C00807F80937C0080917C008260809363
:101200007C0080917A00806480937A0080917A00DB
:1012100084FFFCCF20917800809179009927982F46
:101220008827820F911D089580917C00807F809394
:101230007C0080917C00816080937C0080917A00AA
:10124000806480937A0080917A0084FFFCCF2091A3
:101250007800809179009927982F8827820F911D17
:10126000089580917C00807F80937C0080917C0039
:1012700080937C0080917A00806480937A008091D2
:101280007A0084FFFCCF2091780080917900992723
:10129000982F8827820F911D08950E943109BC0163
:1012A0002AE131E0F901859194918617970718F4A6
:1012B0008CEE9FEF089540E050E002C02E5F3F4F5C
:1012C000A42FF901859194914F5F5F4F68177907BB
:1012D000A8F38A2F992787FD9095459708958091C7
:1012E00016018F5F80931601089510920E011092DF
:1012F0000F01109210011092110110921201109220
:101300001301109214011092150108951092160104
:1013100010920E0110920F01109210011092110103
:1013200010921201109213011092140110921501E3
:1013300008957F928F929F92AF92BF92CF92DF9249
:10134000EF92FF920F931F93CF93DF93CDB7DEB74A
:1013500060970FB6F894DEBF0FBECDBF80900E0130
:1013600090900F01A0901001B0901101C090120157
:10137000D0901301E0901401F090150105C0809108
:10138000160181508093160189829A82AB82BC82B9
:10139000CD82DE82EF82F886A091160181E08987F6
:1013A0001A861B861C861D861E861F86188A01E0EB
:1013B000080D081508F080E01A85190DB1E019151F
:1013C00008F0B0E0810F91E0811708F090E0B92BB0
:1013D000182F2B852A0D772473942A1508F077246B
:1013E0008B2F820F91E0821708F090E0792A282F46
:1013F0003C853B0DB1E03B1508F0B0E0872D830F35
:1014000091E0831708F090E0B92B382F4D854C0DF3
:10141000772473944C1508F077248B2F840F91E078
:10142000841708F090E0792A482F5E855D0DB1E0C1
:101430005D1508F0B0E0872D850F91E0851708F065
:1014400090E0B92B582F6F856E0DF1E06E1508F006
:10145000F0E09B2F960F81E0961708F080E08F2B2D
:1014600078897F0D870F802E912EA22EB32EC42E49
:10147000D52EE92EF82EAA2309F081CFE981E09339
:101480000E01FA81F0930F018B8180931001EC81A2
:10149000E0931101FD81F09312018E81809313017D
:1014A000EF81E0931401F885F093150160960FB673
:1014B000F894DEBF0FBECDBFDF91CF911F910F918A
:1014C000FF90EF90DF90CF90BF90AF909F908F9064
:1014D0007F9008952F923F924F925F926F927F92EA
:1014E0008F929F92AF92BF92CF92DF92EF92FF9234
:1014F0000F931F930E94990920900E0130900F01C5
:1015000040901001509011016090120170901301F1
:101510008090140190901501222D332D442D552DCE
:10152000662D772D882D992D1F910F91FF90EF90AB
:10153000DF90CF90BF90AF909F908F907F906F90F3
:101540005F904F903F902F900895A0E1B0E0EBEABC
:10155000FAE00C94260B222E332E442E552E662EA6
:10156000772E882E992E002309F464C088E0FE01AE
:10157000319611928A95E9F729833A834B835C83EC
:101580006D837E838F82988780E2801B4D815E8190
:101590006F817885E82FFF27E7FDF0951816B4F0E6
:1015A000DB01CA01BB0F880B982FDC018D879E875A
:1015B000AF87B88B882799278E1B9F0B04C0759522
:1015C0006795579547958A95D2F728C0202F3327DE
:1015D00027FD3095DB01CA01022E04C0B595A79501
:1015E000979587950A94D2F78D879E87AF87B88B9A
:1015F00004C0440F551F661F771FEA95D2F78981F3
:101600009A81AB81BC8104C0B695A79597958795C3
:101610002A95D2F7482B592B6A2B7B2B49875A875F
:101620006B877C8729843A844B845C846D847E84B8
:101630008F849888222D332D442D552D662D772D9E
:10164000882D992DE2E160960C94420B2F923F92E7
:101650004F925F926F927F928F929F92AF92BF92C2
:10166000CF92DF92EF92FF920F931F93CF93DF936E
:10167000CDB7DEB7CA1BDB0B0FB6F894DEBF0FBECB
:10168000CDBF09942A88398848885F846E847D8418
:101690008C849B84AA84B984C884DF80EE80FD801A
:1016A0000C811B81AA81B981CE0FD11D0FB6F89490
:0C16B000DEBF0FBECDBFED010895FFCFDF
:0216BC0000F03C
:00000001FF
