:100000000C9405010C9422010C9422010C94220101
:100010000C9422010C9422010C9422010C942201D4
:100020000C9422010C9422010C94AB030C94220139
:100030000C9422010C9422010C9422010C942201B4
:100040000C9422010C9422010C9422010C942201A4
:100050000C9422010C9422010C9422010C94220194
:100060000C9422010C9422010C9422010C94220184
:100070000C9422010C9422010C9422010C94220174
:100080000C94B7010C94D1010C9422010C94DB0167
:100090000C9422010C942201040309040C03310086
:1000A0002E0030002E0030002E0346006C00790038
:1000B0006400720061002000540072006900670053
:1000C000670065007200200043006F006E0074003E
:1000D00072006F006C001203530074007200610024
:1000E00077006D0061006E000902200001010080B0
:1000F000320904000002FFFFFF000705060210009E
:1001000000070582021000001201000200000040FA
:100110008117AF0B001001020301B403B003AB035E
:10012000A603A0039A0394038E03880381037A0332
:1001300073036B0363035B0353034A0341033803F5
:100140002F0325031B0311030703FC02F102E60240
:10015000DB02D002C402B802AC02A0029402880200
:100160007C026F02630256024A023D0231022502FE
:1001700018020C020002F301E701DB01CF01C40108
:10018000B801AC01A10196018B01800176016B01E0
:10019000610157014D0144013A01310128011F015C
:1001A00017010F010601FE00F700EF00E800E10073
:1001B000DA00D300CD00C700C000BA00B500AF0020
:1001C000AA00A4009F009A00960091008C0088006D
:1001D000840080007C007800740071006D006A006B
:1001E0006700640061005E005B005800550053002A
:1001F00050004E004C0049004700450043004100BC
:100200003F003D003C003A00380011241FBECFEFF4
:10021000D0E2DEBFCDBF11E0A0E0B1E0E6E0F2E168
:1002200000E00BBF02C007900D92A230B107D9F7D2
:1002300011E0A2E0B1E001C01D92A531B107E1F7E4
:100240000C9424010C940000CFEFD0E2DEBFCDBFB0
:10025000A89587EF84BF80916000886180936000DB
:10026000109260000E9441010C9402090E94320326
:100270000E94E601089508950E9476030E94FA0103
:10028000FBCF0E9436010E943C0108952FB7F894DD
:1002900090939900809398002FBF08952FB7F894FA
:1002A00090939B0080939A002FBF08952FB7F894E6
:1002B00090939D0080939C002FBF08952FB7F894D2
:1002C00090939700809396002FBF08952FB7F894CE
:1002D00090939500809394002FBF08952FB7F894C2
:1002E00080919400909195002FBF08952FB7F894B6
:1002F00080919600909197002FBF08952FB7F894A2
:1003000080919800909199002FBF08952FB7F8948D
:1003100080919A0090919B002FBF08952FB7F89479
:1003200080919C0090919D002FBF089588B18F7897
:1003300088B987B1806787B98AE090E00E9446015A
:1003400080E090E00E944E0180E090E00E94560123
:100350008DE490E00E945E018AEA809390008BE138
:10036000809391005E9A87E08093710008951F92B8
:100370000F920FB60F9211248F9380910201882360
:1003800051F05F9A80919100887F809391005E98F0
:10039000109202015C988F910F900FBE0F901F90EA
:1003A00018951F920F920FB60F9211240F900FBE47
:1003B0000F901F9018951F920F920FB60F92112455
:1003C0005F980F900FBE0F901F9018950E944008E5
:1003D0008AB1806F8AB984B18F7184B985B1806E1A
:1003E00085B98DB1877E8DB98EB180638EB90E943B
:1003F000960108956F927F928F929F92AF92BF92D3
:10040000CF92DF92EF92FF920F931F93CF93DF93E0
:10041000CDB7DEB724970FB6F894DEBF0FBECDBFC1
:10042000662480910E01882309F401C186E080933F
:10043000E9008091E80082FF83C08091F100992754
:10044000B82EAA248091F100A80EB11C8091F10071
:100450009927D82ECC248091F100C80ED11C809110
:10046000F1009927F82EEE248091F100E80EF11C9E
:100470008091F1009927182F00278091F100080F33
:10048000111D6090F1007090F1008091F100809159
:10049000F1008091F1008091F1008091F100809154
:1004A000F1008091E8008B7F8093E8008091E80064
:1004B0008F778093E800862C992481FE20C0C501A7
:1004C0000E944601C6010E944E01C7010E945601CA
:1004D000C8010E945E0180919100887F972D9770DE
:1004E000892B80939100872D992787709070892B95
:1004F00011F05E9A01C05E9881E08093040182FE53
:100500001FC05C9A80919100887F809391005E98D3
:1005100080E09FEF0E9466018FEF90E00E9446010D
:100520008FEF9FEF0E945E0191E090930201809116
:100530009100887F892B809391005E9A90930401AB
:1005400060FE2AC08091E00081608093E0001092FC
:1005500091005E985C985D985E985F9819821A8207
:100560001B821C8289819A81AB81BC818057914119
:10057000A140B04060F489819A81AB81BC81019631
:10058000A11DB11D89839A83AB83BC83EBCFE0911E
:100590000001F0910101099580910401813009F079
:1005A00046C082E88093E9008091E80080FF3FC068
:1005B0000E947E015C010E9486016C010E948E01F6
:1005C0007C010E9476018C018B2D99278093F1008C
:1005D000A092F1008D2D99278093F100C092F10037
:1005E0008F2D99278093F100E092F100812F9927B8
:1005F0008093F1000093F10088B18093F100809125
:1006000091008093F10087E78093F1008093F100DF
:100610008093F1008093F1008093F1008093F100CA
:100620008091E8008F778093E8001092040124966F
:100630000FB6F894DEBF0FBECDBFDF91CF911F91F3
:100640000F91FF90EF90DF90CF90BF90AF909F9071
:100650008F907F906F900895809103018F5F8093BA
:10066000030108951092070178948091D7008F7B41
:100670008093D7008091D70080688093D7008091C5
:10068000D80080698093D8008091D8008F7B8093B8
:10069000D8008091D80081608093D8001092090121
:1006A0001092080108958091D70081608093D7004F
:1006B0008EE089BD09B400FEFDCF8091D8008F7D0A
:1006C0008093D8008091E20081608093E200809165
:1006D000E20088608093E2000E94CE048091E000F6
:1006E0008E7F8093E00010920E0108958091D900D2
:1006F00080FF16C080910E01882391F491E09093C1
:100700000E0181E680930601909307018091E2003B
:1007100088608093E2008091E0008E7F8093E0000B
:1007200080910701813011F4109207018091050139
:10073000813041F48093EA001092EA001092110196
:10074000109205011092E9008091E80083FF02C039
:100750000E94340508951F920F920FB60F92112434
:100760002F933F934F935F936F937F938F939F93B9
:10077000AF93BF93EF93FF938091DA0080FF24C083
:100780008EEF8093DA008091D90080FF15C091E050
:1007900090930E0181E6809306019093070180916A
:1007A000E20088608093E2000E9453038091E000A1
:1007B0008E7F8093E00008C010920E0182E6809345
:1007C000060181E0809307018091DA0081FF0FC06C
:1007D0008DEF8093DA008091D90081FF02C083E61B
:1007E00001C084E68093060181E080930701809137
:1007F000E10082FF05C08BEF8093E1000E942C0393
:100800008091E10080FF16C08EEF8093E10080911F
:10081000E20080618093E2008FEE8093E10080919E
:10082000D80080628093D80085E68093060181E03D
:10083000809307018091E10084FF13C08091D8006C
:100840008F7D8093D8008FEE8093E1008091E2004D
:100850008F7E8093E20086E68093060181E080939C
:1008600007018091E10085FF13C08091E2008F7E37
:100870008093E2008FED8093E1008091E2008F7D14
:100880008093E20087E68093060181E08093070170
:100890008091E10083FF0DC087EF8093E1000E940B
:1008A000CE0488E68093060181E08093070180935F
:1008B0000501FF91EF91BF91AF919F918F917F9132
:1008C0006F915F914F913F912F910F900FBE0F90BD
:1008D0001F90189578940E9464080895982F80912D
:1008E000EB0081608093EB009093EC008091ED0031
:1008F0008270862B8093ED008091ED008260809362
:10090000ED0020E030E08091EE0087FF02C021E0A2
:1009100030E0C901089530E08091F400811181E058
:10092000282F40E050E0822F9927BC016170707041
:1009300080FF02C0CA0108953F5F4F5F5F4F269559
:10094000393088F3CB010895FB018093E90006C09C
:10095000442341F081918093F10041508091E8005F
:1009600085FDF6CF842F99270895FB018093E90038
:1009700006C0442341F08091F10081934150809161
:10098000E80085FDF6CF842F992708958093E9002C
:100990008091EB0080628093EB0008958091D800F5
:1009A0008F7B8093D8008091D90081FF0EC0109278
:1009B000E9008091EB0080FD08C01092E90060E33F
:1009C00082E00E946E049927089580E090E00895E7
:1009D000982F8091A90081608093A9009093AA002C
:1009E0006093AB008091AB0082608093AB008091FC
:1009F000AC0099278078907008958930910518F49B
:100A000080E090E008958131910518F481E090E054
:100A100008958132910518F482E090E008958134C0
:100A2000910518F483E090E008958138910518F459
:100A300084E090E0089521E08130920718F485E089
:100A400090E008958150924018F486E090E0089577
:100A500087E090E0089510920B0110920C01109223
:100A60000E011092110108959091F10090930D01E3
:100A70006091F100262F33272630310561F12730B0
:100A80003105A4F42130310509F410C122303105BB
:100A900024F4232B09F473C1CDC12330310509F4AB
:100AA0003EC12530310509F4C9C0C4C12930310522
:100AB00009F4E4C02A3031052CF42830310509F45A
:100AC000A2C0B8C12A30310509F494C12B303105D8
:100AD00009F49FC1AFC1903809F097C110920A0183
:100AE0006091F1008091F100282F332721303105EA
:100AF00021F02230310539F010C082E180931201DB
:100B000088E091E005C080E28093120188EE90E0D9
:100B1000909314018093130105C00E9477078823E6
:100B200009F46AC18091F1008091F1002091F100F7
:100B30008091F1009927582F4427420F511D809131
:100B4000E800877F8093E80020911201822F992787
:100B50008417950748F42F7321F481E080930A01EC
:100B60002CC010920A0129C04093120126C0809126
:100B7000E80082FD26C08091E80080FFFCCF20E0E5
:100B8000809112018823A1F0E0911301F0911401EA
:100B9000982F2F5F213431F084918093F1003196AA
:100BA0009150B9F790931201F0931401E09313015F
:100BB0008091E8008E7F8093E80080911201882365
:100BC000B1F68091E8008E7F8093E8008091E80084
:100BD00082FF0BC08091E8008B7F8093E8008091BA
:100BE000E8008F778093E800089580910A018130B2
:100BF00029F48091E8008E7F8093E8008091E800DE
:100C000082FFFCCFE7CF903809F0FFC08091E80069
:100C1000877F8093E800809111018093F10080919B
:100C2000E8008E7F8093E8008091E8008F778093C2
:100C3000E8008091E80082FFFCCFCCCF992309F037
:100C4000E4C09091E30090788091F1008F77982B29
:100C50009093E3008091E800877F8093E800809183
:100C6000E8008E7F8093E8008091E80080FFFCCF51
:100C70008091E30080688093E3000895992309F050
:100C8000C4C09091F100923008F0B6C08091E800A5
:100C9000877F8093E800909311018091E8008E7F18
:100CA0008093E800892F0E9468070895933008F028
:100CB000ACC0992309F4A0C0913009F49DC09230D2
:100CC00009F0C8C09091F1008091F100992309F0DA
:100CD00093C0E091F100EF77E093E9008091EB00A1
:100CE00080FF8AC0EE23A1F08091EB0080618093A9
:100CF000EB000E2E02C0220F331F0A94E2F720935E
:100D0000EA009093EA008091EB0088608093EB000A
:100D10009093E900FF27E55FFE4F908327C0933053
:100D200008F073C0913009F467C0923009F092C0A6
:100D30009091F1008091F100992309F05DC0E0915C
:100D4000F100EF7709F458C0E093E9008091EB00DF
:100D500080FF52C08091EB0080628093EB00909303
:100D6000E900FF27E55FFE4F81E080838091E80086
:100D7000877F8093E8008091E8008E7F33CF892FB2
:100D80008058833008F041C08091F1008091F100DB
:100D9000E091F100892F99278138910559F0823827
:100DA000910524F48038910529F026C082389105F8
:100DB00049F022C08091E800877F8093E80010927C
:100DC000F1000CC08091E800877F8093E800EF7706
:100DD000FF27E55FFE4F80818093F1001092F100C4
:100DE0008091E8008E7F8093E8008091E80082FF88
:100DF000FCCFF0CE913849F48091EB008062809373
:100E0000EB008091E800877FEDCE892F0E944B0791
:100E100008959130F9F48091E800877F8093E8008D
:100E20008091E8008E7F8093E8008091E80080FF49
:100E3000FCCF089580910D010E944B07882351F447
:100E40008091EB0080628093EB008091E800877FC7
:100E50008093E80008958091F1008091F100209145
:100E6000F1008091F1009927982F8827820F911D1A
:100E70009093100180930F018091E800877F809309
:100E8000E8008091E8008E7F8093E8008091E80080
:100E900080FFFCCF0895862F9091F1009091F10092
:100EA00099278930910549F08A3091051CF40697FD
:100EB00021F00BC00A9721F008C080E090E008956F
:100EC0000E942B0781E090E0089580E090E0089573
:100ED00086E08093E90060E180E80E946E0482E889
:100EE0008093E90060E181E80E946E0408958330F8
:100EF000B9F577276130710599F0623071051CF4FE
:100F0000672B41F02AC062307105A9F0633071058A
:100F1000F1F023C084E08093120188E990E010C0D2
:100F200082E18093120186ED90E09093140180930A
:100F30001301CB0108958EE28093120188EA90E0BC
:100F4000909314018093130181E090E008958CE068
:100F5000809312018CE990E0F3CF80E090E0089557
:100F600080E090E008958091F1008091F10020915F
:100F7000F1008091F1009927982F8827820F911D09
:100F80009093100180930F018091E800877F8093F8
:100F9000E8008091E8008E7F8093E8008091E8006F
:100FA00080FFFCCF08952091F1008091F1009927F6
:100FB000982F8827820F911D9093100180930F0125
:100FC000109212012091F1008091F1009927582F81
:100FD0004427420F511D8091E800877F8093E800ED
:100FE0001416150648F14093120126C08091E800BE
:100FF00082FD26C08091E80080FFFCCF20E0809138
:1010000012018823A1F0E0911301F0911401982FAF
:101010002F5F213431F084918093F100319691500B
:10102000B9F790931201F0931401E09313018091AA
:10103000E8008E7F8093E800809112018823B1F64A
:101040008091E8008E7F8093E8008091E80082FD27
:101050000CC081E0881729F48091E8008E7F80938E
:10106000E8008091E80082FFFCCF8091E8008B7F50
:101070008093E8008091E8008F778093E8000895DE
:1010800080917A00806880937A0080917C008F7DC7
:1010900080937C0080917C008F7780937C0080918E
:1010A0007C00806480937C0080917A00877F8093AD
:1010B0007A0080917A00887F80937A0080917A000C
:1010C000806480937A00089513BE83B7856083BFE0
:1010D0008895089513BE83B7816083BF889508956E
:1010E00013BE83B7836083BF8895089513BE83B70B
:1010F000876083BF8895089513BE83B78D6083BFD3
:101100008895089513BE83B78F6083BF889508952F
:1011100080917C00807F80937C0080917C00826045
:1011200080937C0080917A00806480937A00809123
:101130007A0084FFFCCF2091780080917900992774
:10114000982F8827820F911D089580917C00807FC1
:1011500080937C0080917C00816080937C008091F2
:101160007A00806480937A0080917A0084FFFCCFBB
:1011700020917800809179009927982F8827820FF5
:10118000911D089580917C00807F80937C008091E8
:101190007C0080937C0080917A00806480937A0048
:1011A00080917A0084FFFCCF2091780080917900B3
:1011B0009927982F8827820F911D08951F93CF9309
:1011C000DF9310E0CAE1D1E00E94C2089C01FE0159
:1011D000859194918217930718F48CEE9FEF0EC0BF
:1011E000FE01859194912817390718F422961F5F04
:1011F000F7CF812F992787FD90954597DF91CF9164
:061200001F910895FFCFCD
:0212060000F0F6
:00000001FF
