:100000000C9405010C9422010C9422010C94220101
:100010000C9422010C9422010C9422010C942201D4
:100020000C9422010C9422010C94E9030C942201FB
:100030000C9422010C9422010C9422010C942201B4
:100040000C9422010C9422010C9422010C942201A4
:100050000C9422010C9422010C9422010C94220194
:100060000C9422010C9422010C9422010C94220184
:100070000C9422010C9422010C9422010C94220174
:100080000C94FE010C94D0010C9422010C94DA0122
:100090000C9422010C942201120100020000004085
:1000A0008117AF0B001001020301090220000101BA
:1000B0000080320904000002FFFFFF00070506026E
:1000C00010000007058202100000120353007400A4
:1000D0007200610077006D0061006E002E03460023
:1000E0006C0079006400720061002000540072000E
:1000F00069006700670065007200200043006F0020
:100100006E00740072006F006C000C0331002E0052
:1001100030002E00300004030904B403B003AB0325
:10012000A603A0039A0394038E03880381037A0332
:1001300073036B0363035B0353034A0341033803F5
:100140002F0325031B0311030703FC02F102E60240
:10015000DB02D002C402B802AC02A0029402880200
:100160007C026F02630256024A023D0231022502FE
:1001700018020C020002F301E701DB01CF01C40108
:10018000B801AC01A10196018B01800176016B01E0
:10019000610157014D0144013A01310128011F015C
:1001A00017010F010601FE00F700EF00E800E10073
:1001B000DA00D300CD00C700C000BA00B500AF0020
:1001C000AA00A4009F009A00960091008C0088006D
:1001D000840080007C007800740071006D006A006B
:1001E0006700640061005E005B005800550053002A
:1001F00050004E004C0049004700450043004100BC
:100200003F003D003C003A00380011241FBECFEFF4
:10021000D0E2DEBFCDBF11E0A0E0B1E0EEEDF4E151
:1002200000E00BBF02C007900D92A230B107D9F7D2
:1002300011E0A2E0B1E001C01D92AE31B107E1F7DB
:100240000C9424010C940000CFEFD0E2DEBFCDBFB0
:10025000E1E6F0E080E880831082A89587EF84BF14
:10026000E0E6F0E080818861808310820E944B018B
:1002700080E090E00C946E0A08950E94A8040E9409
:100280002D020E942809F9CF0E94A7030E94EA01CB
:100290000E94150908950E9444010E943D0108959D
:1002A0002FB7F89490939900809398002FBF0895EA
:1002B0002FB7F89490939B0080939A002FBF0895D6
:1002C0002FB7F89490939D0080939C002FBF0895C2
:1002D0002FB7F89490939700809396002FBF0895BE
:1002E0002FB7F89490939500809394002FBF0895B2
:1002F0002FB7F89480919400909195002FBF0895A6
:100300002FB7F89480919600909197002FBF089591
:100310002FB7F89480919800909199002FBF08957D
:100320002FB7F89480919A0090919B002FBF089569
:100330002FB7F89480919C0090919D002FBF089555
:1003400088B18F7888B987B1806787B92FB7F8945B
:100350008AE090E090939900809398002FBF8FB728
:10036000F89410929B0010929A008FBF8FB7F89468
:1003700010929D0010929C008FBF2FB7F8948DE4CF
:1003800090E090939700809396002FBF8AEA809325
:1003900090008BE18093910087E080937100089535
:1003A0001F920F920FB60F9211240F900FBE0F9055
:1003B0001F9018951F920F920FB60F9211240F9055
:1003C0000FBE0F901F901895809103018F5F80934F
:1003D000030108950E945C088AB1806F8AB984B1D4
:1003E0008F7184B985B1806E85B98DB1877E8DB9E5
:1003F0008EB180638EB90E94A00108951F920F9262
:100400000FB60F9211242F933F934F935F936F93E7
:100410007F938F939F93AF93BF93EF93FF938091BD
:100420000401882339F080919100887F80939100A6
:10043000109204010E940F09FF91EF91BF91AF91BB
:100440009F918F917F916F915F914F913F912F91EC
:100450000F900FBE0F901F9018950F931F93CF937F
:10046000DF93CDB7DEB724970FB6F894DEBF0FBE8B
:10047000CDBF80911701882309F45EC186E0809387
:10048000E9008091E80082FD03C000E010E0C4C0F4
:100490004091F1005091F1006091F1007091F100F4
:1004A000E091F100F091F100A091F100B091F10024
:1004B0009091F1003091F1008091F1008091F10074
:1004C0008091F1008091F1008091F1008091F10024
:1004D0008091E8008B7F8093E8008091E8008F771F
:1004E0008093E800092F112701FF3EC02FB7F89431
:1004F000842F9927982F8827850F911D9093990015
:10050000809398002FBF2FB7F894862F9927982FA4
:100510008827870F911D90939B0080939A002FBF8F
:100520002FB7F8948E2F9927982F88278F0F911D1A
:1005300090939D0080939C002FBF2FB7F8948A2F33
:100540009927982F88278B0F911D90939700809360
:1005500096002FBF80919100887F3770832B809306
:10056000910081E08093020102FF2BC080919100F5
:10057000887F809391002FB7F89480E09FEF90934D
:100580009500809394002FBF2FB7F8948FEF90E0E1
:1005900090939900809398002FBF2FB7F8948FEF16
:1005A0009FEF90939700809396002FBF91E09093D8
:1005B000040180919100887F8160809391009093E5
:1005C000020100FF29C08091E00081608093E0007B
:1005D000109291005C985D985E985F9819821A82DB
:1005E0001B821C820BC089819A81AB81BC810196E0
:1005F000A11DB11D89839A83AB83BC8389819A81B4
:10060000AB81BC8180579141A140B04060F3E09143
:100610000001F0910101099580910201813009F0FA
:1006200057C082E88093E9008091E80080FF50C0C5
:100630008FB7F89420919800309199008FBF8FB7B1
:10064000F89420919A0030919B008FBF8FB7F89457
:1006500020919C0030919D008FBF8FB7F89420911E
:100660009600309197008FBFF80180818093F10050
:1006700081818093F10082818093F1008381809356
:10068000F10084818093F10085818093F10086815F
:100690008093F10087818093F10088B18093F1000D
:1006A000809191008093F10087E78093F10080931F
:1006B000F1008093F1008093F1008093F10080932A
:1006C000F1008091E8008F778093E800109202019A
:1006D00003FF32C02FB7F89480E09EEF909399000B
:1006E000809398002FBF2FB7F8948FEF9EEF9093D1
:1006F0009700809396002FBF2FB7F8948FEF9FEF4E
:1007000090939500809394002FBF5C9A8091910004
:10071000887F8160809391002FB7F8948091940036
:10072000909195002FBF8F5F9F4FB0F75F9A809198
:100730009100887F8093910024960FB6F894DEBFD5
:100740000FBECDBFDF91CF911F910F9108951092F1
:1007500007017894E7EDF0E080818F7B80838081D2
:1007600080688083E8EDF0E080818069808380810B
:100770008F7B808380818160808310920901109239
:100780000801089578940E94760808958091D70012
:1007900081608093D7008EE089BD09B400FEFDCF53
:1007A0008091D8008F7D8093D8008091E200816095
:1007B0008093E2008091E20088608093E2000E94D2
:1007C0003A058091E0008E7F8093E000109217013F
:1007D00008951F920F920FB60F9211242F933F93FB
:1007E0004F935F936F937F938F939F93AF93BF9339
:1007F000EF93FF938091DA0080FF24C08EEF809307
:10080000DA008091D90080FF15C091E09093170124
:1008100081E680930601909307018091E200886051
:100820008093E2000E94C6038091E0008E7F809357
:10083000E00008C01092170182E68093060181E073
:10084000809307018091DA0081FF0FC08DEF8093C4
:10085000DA008091D90081FF02C083E601C084E6FE
:100860008093060181E0809307018091E10082FF7F
:1008700005C08BEF8093E1000E94E4018091E100CC
:1008800080FF16C08EEF8093E1008091E2008061CE
:100890008093E2008FEE8093E1008091D800806227
:1008A0008093D80085E68093060181E0809307015C
:1008B0008091E10084FF13C08091D8008F7D8093E8
:1008C000D8008FEE8093E1008091E2008F7E8093CC
:1008D000E20086E68093060181E080930701809123
:1008E000E10085FF13C08091E2008F7E8093E200DB
:1008F0008FED8093E1008091E2008F7D8093E20094
:1009000087E68093060181E0809307018091E100F2
:1009100083FF0DC087EF8093E1000E943A0588E6CF
:100920008093060181E08093070180930501FF9188
:10093000EF91BF91AF919F918F917F916F915F9157
:100940004F913F912F910F900FBE0F901F901895D0
:100950008091D90080FF17C080911701882399F4F6
:1009600091E09093170181E680930601909307012F
:100970008091E20088608093E2008091E0008E7FA9
:100980008093E00004C080910701813011F410923F
:10099000070180910501813041F48093EA001092B3
:1009A000EA0010921A01109205011092E90080915C
:1009B000E80083FF02C00E949E0508959091EB001D
:1009C00091609093EB008093EC008091ED00827039
:1009D000862B8093ED008091ED0082608093ED0086
:1009E0008091EE00992787FD90958827990F881FA1
:1009F000992708958091F400811181E0482F20E02B
:100A000030E0822F40FF02C0992708952F5F3F4FAB
:100A10002930310511F04695F4CF80E090E008953B
:100A2000FB018093E90004C081918093F100415063
:100A30008091E80085FF02C04423B1F7842F9927F5
:100A40000895FB018093E90004C08091F100819337
:100A500041508091E80085FF02C04423B1F7842F04
:100A6000992708958093E900EBEEF0E080818062A1
:100A7000808308958091D8008F7B8093D8008091E7
:100A8000D90081FF0EC01092E9008091EB0080FD3B
:100A900008C01092E90060E382E00E94DE0499271A
:100AA000089580E090E00895E9EAF0E09081916097
:100AB00090838093AA00EBEAF0E0608380818260FB
:100AC00080838091AC009927807890700895893058
:100AD000910518F480E090E008958131910518F4B3
:100AE00081E090E008958132910518F482E090E071
:100AF00008958134910518F483E090E008958138D9
:100B0000910518F484E090E0089521E08130920787
:100B100018F485E090E008958150924018F486E042
:100B200090E0089587E090E0089510920B011092F4
:100B30000C011092170110921A0108959091F10082
:100B400090930D016091F1006630F9F0673068F420
:100B5000613009F40EC1613008F478C1633009F4E2
:100B600044C1653009F0C6C1CAC0693009F4E8C0A3
:100B70006A3020F4683009F0BDC1A5C06A3009F4BC
:100B800098C16B3009F0B6C1A4C1903809F099C082
:100B900010920A016091F1008091F100813019F00A
:100BA000823089F406C082E180931B0188E990E0DD
:100BB00005C080E280931B018AEA90E090931D01BA
:100BC00080931C0105C00E948A07882309F473C121
:100BD0008091F1008091F1002091F1008091F1006D
:100BE0009927582F4427420F511D8091E800877F95
:100BF0008093E80080911B01282F332724173507A5
:100C000058F42F733070232B21F481E080930A0174
:100C100005C010920A0102C040931B01E0911C0123
:100C2000F0911D0190911B0117C08091E80080FF99
:100C3000FCCF21E003C02F5F213441F084918093E9
:100C4000F1003196392F321B2917A9F78091E8005E
:100C50008E7F8093E800932F992359F08091E800CC
:100C600082FFE3CFF0931D01E0931C0190931B01E1
:100C700006C0F0931D01E0931C0110921B018091AE
:100C8000E8008E7F8093E8008091E80082FF0BC02F
:100C90008091E8008B7F8093E8008091E8008F7757
:100CA0008093E800089580910A01813029F48091B1
:100CB000E8008E7F8093E8008091E80082FFFCCFFF
:100CC000E7CF66E002C19038C1F48091E800877FE9
:100CD0008093E80080911A018093F1008091E800F0
:100CE0008E7F8093E8008091E8008F778093E80002
:100CF0008091E80082FFFCCFCBCF68E0E6C099236B
:100D0000E9F49091E3008091F10090788F77982B2F
:100D10009093E3008091E800877F8093E8008091C2
:100D2000E8008E7F8093E8008091E80080FFFCCF90
:100D30008091E30080688093E300089565E0C5C07A
:100D40009923A9F49091F100923008F0B4C08091F9
:100D5000E800877F8093E80090931A018091E80073
:100D60008E7F8093E800892F0E944708089569E0EC
:100D7000ACC09330C0F5992309F49DC0913009F4BB
:100D80009AC0923009F0C5C08091F1009091F100B5
:100D9000882309F090C0E091F100EF77E093E9003B
:100DA0008091EB0080FF87C0EE23B1F08091EB00D3
:100DB00080618093EB0081E090E00E2E02C0880FEE
:100DC000991F0A94E2F78093EA001092EA0080915A
:100DD000EB0088608093EB001092E900FF27E55F4D
:100DE000FE4F108228C061E070C0933068F59130EA
:100DF00009F461C0923009F08CC08091F1009091AB
:100E0000F100882309F057C0E091F100EF7709F471
:100E100052C0E093E9008091EB0080FF4CC08091CC
:100E2000EB0080628093EB001092E900FF27E55F02
:100E3000FE4F81E080838091E800877F8093E80007
:100E40008091E8008E7F2CCF63E03FC0892F8058CF
:100E5000833068F58091F1008091F100E091F1001C
:100E6000913821F0923851F0903829F58091E800BE
:100E7000877F8093E8001092F1000DC08091E80018
:100E8000877F8093E800FF27EF77F070E55FFE4FE4
:100E900080818093F1001092F1008091E8008E7FB4
:100EA0008093E8008091E80082FFFCCFF1CE60E003
:100EB0000CC0913849F48091EB0080628093EB0084
:100EC0008091E800877FECCE6AE0892F0E94F607C8
:100ED00008959130F1F48091E800877F8093E800D5
:100EE0008091E8008E7F8093E8008091E80080FD8B
:100EF00010C0FBCF892F0E94F607882351F4809100
:100F0000EB0080628093EB008091E800877F809304
:100F1000E8000895833039F5613069F0613028F0D8
:100F2000623079F06330F9F412C084E080931B01E1
:100F300086E191E011C082E180931B018AEC90E090
:100F40000BC08EE280931B018CED90E005C08CE01D
:100F500080931B018AE091E090931D0180931C0116
:100F600081E090E0089580E090E008958091F100A4
:100F70008091F1002091F1008091F1009927982F44
:100F80008827820F911D90931901809318018091F9
:100F9000E800877F8093E8008091E8008E7F80934F
:100FA000E8008091E80080FFFCCF08958091F10077
:100FB0008091F1002091F1008091F1009927982F04
:100FC0008827820F911D90931901809318018091B9
:100FD000E800877F8093E8008091E8008E7F80930F
:100FE000E8008091E80080FFFCCF08958091F10037
:100FF0008091F1006A3019F080E090E008950E943D
:10100000D60781E090E008952091F1008091F100F1
:101010009927982F8827820F911D9093190180930B
:10102000180110921B013091F1008091F100209184
:10103000E800277F2093E8009927982F8827830FBF
:10104000911D892B51F08091E8008E7F8093E800FC
:101050008091E80082FD10C003C010921B01F3CF05
:1010600081E0813029F48091E8008E7F8093E80050
:101070008091E80082FFFCCF8091E8008B7F809315
:10108000E8008091E8008F778093E80008950F933F
:101090001F9309EE10E086E0F801808360E180E8AC
:1010A0000E94DE0482E8F801808360E181E80E940A
:1010B000DE041F910F910895AAE7B0E08C9180683B
:1010C0008C93ECE7F0E080818F7D808380818F7747
:1010D00080838081806480838C91877F8C938C91C6
:1010E000887F8C938C9180648C93089513BE83B712
:1010F000856083BF8895089513BE83B7816083BFE1
:101100008895089513BE83B7836083BF889508953B
:1011100013BE83B7876083BF8895089513BE83B7D6
:101120008D6083BF8895089513BE83B78F6083BF9A
:101130008895089580917C00807F80937C008091C9
:101140007C00826080937C0080917A008064809330
:101150007A0080917A0084FFFCCF20917800809102
:1011600079009927982F8827820F911D08958091E3
:101170007C00807F80937C0080917C0081608093E4
:101180007C0080917A00806480937A0080917A005C
:1011900084FFFCCF20917800809179009927982FC7
:1011A0008827820F911D089580917C00807F809315
:1011B0007C0080917C0080937C0080917A00806428
:1011C00080937A0080917A0084FFFCCF2091780090
:1011D000809179009927982F8827820F911D089573
:1011E0000E94D408AC012AE131E0F9018591949183
:1011F0008417950718F48CEE9FEF089560E003C004
:101200002E5F3F4F6F5FF901859194914817590701
:10121000B8F3862F992787FD90954597089580917B
:1012200016018F5F80931601089510921601109297
:101230000E0110920F0110921001109211011092E4
:1012400012011092130110921401109215010895C9
:101250007F928F929F92AF92BF92CF92DF92EF9246
:10126000FF920F931F93CF93DF93CDB7DEB76097B5
:101270000FB6F894DEBF0FBECDBF80900E019090E8
:101280000F01A0901001B0901101C0901201D090F8
:101290001301E0901401F090150105C08091160132
:1012A000815080931601A091160181E089831A82F2
:1012B0001B821C821D821E821F82188601E0080D7F
:1012C000081508F080E01A81190DB1E0191508F031
:1012D000B0E0810F91E0811708F090E0B92B182F52
:1012E0002B812A0D91E0792E2A1508F077248B2F77
:1012F000820F91E0821708F090E0792A282F3C8134
:101300003B0DB1E03B1508F0B0E0872D830F91E075
:10131000831708F090E0B92B382F4D814C0D81E0F8
:10132000782E4C1508F077248B2F840F91E08417CA
:1013300008F090E0792A482F5E815D0DB1E05D15DF
:1013400008F0B0E0872D850F91E0851708F090E058
:10135000B92B582F6F816E0DF1E06E1508F0F0E09B
:101360009B2F960F81E0961708F080E08F2B7885F1
:101370007F0D870F802E912EA22EB32EC42ED52E38
:10138000E92EF82EAA2309F089CFEFEFE987EA8743
:10139000EB87EC87ED87EE87EF87E88B0FEF080D83
:1013A00081E0081508F080E01A85190DA1E01915F3
:1013B00008F0A0E0810F91E0811708F090E0A92BE0
:1013C000182F2B852A0DB1E02A1508F0B0E08A2FDE
:1013D000820F91E0821708F090E0B92B282F3C850E
:1013E0003B0DA1E03B1508F0A0E08B2F830F91E0AF
:1013F000831708F090E0A92B382F4D854C0DB1E0F4
:101400004C1508F0B0E08A2F840F91E0841708F0A3
:1014100090E0B92B482F5E855D0DA1E05D1508F0C9
:10142000A0E08B2F850F91E0851708F090E0A92BA5
:10143000582F6F856E0DF1E06E1508F0F0E09A2FD1
:10144000960F81E0961708F080E08F2B78897F0D4A
:10145000870F00930E0110930F012093100130931A
:101460001101409312015093130190931401809342
:10147000150160960FB6F894DEBF0FBECDBFDF91A9
:10148000CF911F910F91FF90EF90DF90CF90BF9081
:10149000AF909F908F907F9008950F931F938C0132
:1014A0000E94280980910E01F801808380910F012C
:1014B00081838091100182838091110183838091C7
:1014C00012018483809113018583809114018683A6
:0E14D0008091150187831F910F910895FFCF22
:0214DE0000F01C
:00000001FF
